:020000040800F2
:10000000F83F01201101020873AF040861AF040832
:1000100075AF040881AF04088DAF0408000000002C
:1000200000000000000000000000000099AF04087C
:100030009BAF04080000000015B304084DB304088A
:100040000100020809B0040815B004081DB0040836
:1000500011020508010002089DAF0408A3AF0408BF
:10006000A9AF0408AFAF0408B5AF040801D1040874
:1000700011D1040821D1040831D1040841D1040868
:1000800051D1040861D104080100020800000000F9
:10009000000000000000000000000000BBAF0408EA
:1000A00031B0040837B0040849B004084FB0040860
:1000B00055B004085BB0040861B0040893B00408AC
:1000C00099B004089FB00408A5B004080100020814
:1000D0000100020881B0040887B004080000000095
:1000E000DFAF04080FB004080100020800000000A0
:1000F00000000000000000000000000071D10408B2
:10010000000000000100020869B0040801000208B4
:1001100000000000000000000000000000000000DF
:1001200081D1040891D10408A1D10408B1D10408F7
:10013000C1D1040800000000000000000000000021
:1001400000000000000000000000000001000208A4
:10015000D1D10408E1D10408F1D104088DB004081C
:10016000ABB00408B1B004080000000000000000BB
:10017000000000000000000000000000000000007F
:100180000000000001000208000000000000000064
:1001900001000208006870470B0A017043700B0CE5
:1001A000090E8370C1707047036A0239023B8B42AB
:1001B00083BFC389406B01FB0300002070470346E7
:1001C00000F10B010020C20142EA500213F8010BBA
:1001D00050FA82F28B42D0B2F5D1704737B50D4656
:1001E000044620B9092000232B6003B030BD03680A
:1001F000002BF7D05A79002AF4D081885A8991428D
:10020000F0D118680DF10702062102F0A1FA9DF85D
:10021000073003F00103034313F0FF00E2D123682A
:10022000E2E738B5C3790446C3B100F13C05826BFF
:1002300000680123294602F076FA88B9A16BE36AC7
:10024000626AE071CB1A934208D2A379022B05D1DE
:100250000A4420680123294602F065FA002038BDCF
:100260000120FCE72DE9F0470026D0F800908E75BC
:10027000836907460C46002B7DD0C36A01335FD1EA
:10028000F96900234D1E18462E2615F8012F202A45
:1002900000F101000CD0052A08BFE522092804D18D
:1002A0000B2B9EBFE71801337E72E71801337A7279
:1002B0000B28EAD1E21800205072A27D002A4FD10B
:1002C000002B44D004F1080308255A78581C002A52
:1002D00053D11B1B083B3DE0B8F1000F05D100F5E1
:1002E00020539BB2B3F5006F13D340F2B51140EA2F
:1002F000084041F06BFDFF28C5F1FF0A18D9BAF19B
:10030000010F20D96319020A9A75D87502231D447A
:10031000002002368046D9F81030985B0028DBD1E7
:10032000B8F1000F18BF002525440023AB75A7E7DF
:1003300048B1BAF1000F08D0631998750123E6E7B8
:10034000B0463546E7E70025EAE75546E8E73F23AC
:10035000A3750123234400229A750B7B03B96372B2
:10036000CB7A237201F11C00FFF714FF2060CB8AC7
:10037000E3800B8BA380BDE8F0872E2A134609D0BB
:10038000413A192A03D80A7B154200D0203343731F
:1003900003469AE71025FAE738B50568044615F8CC
:1003A000010B20B140F2B51141F02EFD08B12560DE
:1003B00038BD4FF0FF30FBE7C2F307238A76CB76D8
:1003C0004379032B01BF120C0A75120A4A75704754
:1003D00038B5836B8B4205460C4610D0FFF721FFE2
:1003E00060B922462868012305F13C0102F08CF92E
:1003F00000281CBF4FF0FF340120AC6338BD002043
:10040000FCE7000038B50023C3714FF0FF3383636E
:100410000546FFF7DDFF044608BBB5F83A224AF669
:1004200055239A421DD195F83C2002F11803DBB206
:10043000012B01D9EB2A16D10C49032205F17200D8
:1004400044F04EFD48B10A49052205F18E0044F002
:1004500047FD041E18BF01246400204638BD042453
:10046000FBE70324F9E70224F7E700BFE357050899
:10047000E7570508F0B5044687B06379006801F0D6
:10048000FE0583B10DF10702062102F061F99DF826
:100490000730DE0707D40DB15C0702D4002007B097
:1004A000F0BD0A20FBE70023637120680DF107020D
:1004B000052102F04DF99DF80730D80700F1EF80D3
:1004C0000DB15907EDD400212046FFF79BFF02280C
:1004D000034603D0012824D8257975B302AA04F273
:1004E000022304F24221174613F8040C10B11846F7
:1004F000FFF750FE1033994242F8040BF4D12679ED
:1005000006B1013E57F826507DB129462046FFF737
:1005100079FF0346227952B9012B0ED90136032EF9
:10052000F0D9042B07D10120B9E70323F2E7042B0C
:10053000F9D0012B01D90D20B1E7B4F84730B3F55C
:10054000007FF8D1B4F8521021B904F16000FFF730
:1005500021FE014694F84C3061625A1E012AA371B3
:10056000E9D894F84960E681002EE4D0721E324248
:10057000E1D1B4F84D70A7813A07DCD1B4F84F004F
:1005800018B904F15C00FFF705FEB4F84A20002A10
:10059000D1D001FB03FE02EB171CF4446045CAD323
:1005A000A0EB0C00B042B0FBF6F3C4D33D4883424D
:1005B000C1D84FF6F57083425FD840F6F576B34266
:1005C0008CBF0226012602332A440CEB0500032EC1
:1005D0002362A562E262606351D1B4F866203A43B7
:1005E000A9D104F16800FFF7D5FD9B0003F2FF13CA
:1005F000B1EB532F20639ED34FF0FF33C4E9053393
:10060000032E4FF0800323722BD1B4F86C30012BF2
:1006100027D1691C2046FFF7DBFE10BBB4F83A2255
:1006200020724AF655239A421BD104F13C00FFF791
:10063000B1FD1D4B984214D104F50870FFF7AAFDD7
:1006400003F1FF5303F500532033984209D104F519
:100650000970FFF79FFDA06104F50A70FFF79AFD8E
:100660006061124A6671138801339BB21380638103
:100670000F4B23610023E36110E70326A3E7002F5C
:100680003FF459AF022E02EB0E004FEA43021BBFAC
:10069000D21803F00103134603EB5203A6E703202D
:1006A000FDE600BFF5FFFF0F5252614170050020CB
:1006B0007003002001292DE9F04706460C46174635
:1006C0006FD9036A8B426CD94379022B3ED0032B3E
:1006D0004FD0012B65D101EB5108C16A01EB5821C4
:1006E000FFF776FE054630BB06F13C0908F1010A2A
:1006F000C8F3080814F0010418BF19F80820FBB269
:100700001EBF02F00F0242EA0313DBB209F8083001
:10071000F16A0123F37101EB5A213046FFF758FECD
:10072000054640B9CAF3080A44B1C7F3071709F8E8
:100730000A700123F3712846BDE8F08719F80A30E2
:10074000C7F3032723F00F031F43F0E7C16A01EB50
:100750001421FFF73DFE05460028ECD1640006F1A8
:100760003C0304F4FF741A191F55C7F30727577089
:10077000DFE7C16A01EBD411FFF72AFE0546002826
:10078000D9D1A40006F13C0304F4FE7423441846B6
:10079000FFF700FD014667F31B011846FFF7FCFC5D
:1007A000C7E70225C7E7F8B505460E46FFF739FD4E
:1007B0000446F8B931462846FFF7F6FC05F13C0738
:1007C0000646A8634FF400722146384644F060FBA9
:1007D000EB899C4204D3E889001B18BF0120F8BDB7
:1007E000286801233219394601F09DFF0028F2D113
:1007F0000134EDE70120F2E7F8B50446FFF711FDFB
:100800000546002842D16379032B37D1277A012F7F
:1008100034D104F13C0601464FF40072304644F0F6
:1008200037FB552384F83A32AA2384F83B3252230B
:100830004122722184F83C3084F83D30612384F8F1
:100840003E3084F8233284F83F2084F8201284F864
:10085000211284F82222A16904F50970FFF79CFC9B
:10086000616904F50A70FFF797FCA26A20680132FB
:10087000A2633B46314601F056FF257200222068F4
:10088000114601F065FF003818BF0120F8BD0328AC
:100890004B8B04BF8A8A43EA0243184670470129FA
:1008A000F8B506460C464ED9036A99424BD24379B5
:1008B000022B29D0032B34D0012B44D101EB51055D
:1008C000C16A01EB5521FFF783FD10B14FF0FF30F6
:1008D000F8BD6F1CF16AC5F30805354401EB5721DB
:1008E000304695F83C50FFF773FD0028EED1C7F372
:1008F0000807374497F83C3045EA0320E3074CBF2C
:100900000009C0F30B00E3E7C16A01EB1421FFF714
:100910005FFD0028DAD1640004F4FF743444A08F32
:10092000D6E7C16A01EBD411FFF752FD0028CDD103
:10093000A40006F13C0004F4FE742044FFF72AFCF6
:1009400020F07040C4E70120C2E7F8B50C46012C46
:100950000568064611462BD92B6AA34228D92AB12D
:100960004FF0FF322846FFF7A5FE38B92146306820
:10097000FFF795FF2746044608B90020F8BD012877
:1009800016D0431C16D0002239462846FFF792FEA7
:100990000028F3D12A6AAB69911E8B4205D201333C
:1009A000AB612B7A43F001032B72A242DED8E4E75D
:1009B0000220E3E70120E1E72DE9F84305688146DD
:1009C0000F4649B96E69C6B12B6AB34298BF01267A
:1009D000AB69A3B9002406E02846FFF760FF0128B1
:1009E000044603D801242046BDE8F883421C54D0B5
:1009F0002B6A8342F7D83E46EAE70126E8E7BE4283
:100A00002B6A15D1741C9C4228BF0224D9F800001F
:100A10002146FFF744FF0128E4D0431C3DD0F0B14C
:100A2000D5F81480B8F1010F02D92B6A984500D38C
:100A3000B04644462B6A0134A34203D8B8F1010FF3
:100A4000C8D00224D9F800002146FFF728FF40B1A2
:100A50000128C7D0013020D04445EBD1BAE7002CA3
:100A6000E6D04FF0FF3221462846FFF723FE90B92B
:100A700057B92A6AAB696C61023A934210D92B7A52
:100A800043F001032B72AEE7224639462846FFF7B2
:100A900011FE0028EDD00128A4D14FF0FF34A2E7C9
:100AA000013BAB61EBE72DE9F843076906682037A6
:100AB000B7F5001F24BF002383618369044689467C
:100AC00073B1C7F30808B8F1000F39D14169013398
:100AD000836141B9B389B3EB571F31D80023A361B8
:100AE0000420BDE8F883F389013B13EA572327D19B
:100AF0003046FFF7D4FE0128054601D80220F0E772
:100B0000421C01D10120ECE7336A834212D8B9F1CB
:100B1000000FE3D061692046FFF74EFF0546A8B1FC
:100B20000128EBD0431CEDD001463046FFF73BFED9
:100B30000028E7D1656129463046FFF735FBA06103
:100B40003C3646442761E6610020CAE70720C8E733
:100B50002DE9F047FF25076880460E46A946042484
:100B6000D8F8181019B9002C74D004245BE038466A
:100B7000FFF72EFC0446002855D1D8F81C00017858
:100B80000029F2D0C37AE52903F03F0388F8063044
:100B90004FD02E294DD023F02002A2F1080CDCF119
:100BA000000242EB0C02B24243D10F2B47D14C065C
:100BB0003DD5D8F81030457BC8F82C3001F0BF0186
:100BC000437BAB4235D1428B9ABB0378D7F810C038
:100BD000DFF8889023F040030D24013B63434FF678
:100BE000FF7A012419F801EB30F80EE024B3FF2B53
:100BF0001FD82CF813E07446013301320D2AF1D1CD
:100C00000278520605D524B1FF2B12D800222CF809
:100C100013204B1E5FFA83F900214046FFF743FF84
:100C2000044600289CD00023C8F8183012E08945FB
:100C3000C6D04FF0FF09EFE7D645DED0F9E7B9F1AE
:100C4000000F03D1FFF7BBFAA84203D04FF0FF33E8
:100C5000C8F82C302046BDE8F08700BF76F80508BC
:100C6000B1F5001FF8B5056806460C4601D3022011
:100C7000F8BDCA06FBD182680161BAB96B79022B53
:100C800001D92B6B9BB9AB89B3EB541FEFD9286B00
:100C9000C6E905200028EAD000EB54203C35C4F317
:100CA00008042544B061F5610020E1E71346EF89AF
:100CB0001A467F02BC42114603D22846FFF774FA57
:100CC000E6E73068FFF7EBFD431C024606D001283B
:100CD000CDD92B6A8342CAD9E41BEBE70120C7E7D1
:100CE000F8B50E46002107680446FFF7B9FFA8B91A
:100CF0000546A1693846FFF76BFB78B9E3691B78B5
:100D0000E52B00D01BB90135B54201D1F8BD054630
:100D100001212046FFF7C7FE0028EAD0042808BFBB
:100D20000720F3E7C16A4B1C2DE9F041056806690D
:100D3000044618D1E5274FF00108A1692846FFF7BE
:100D400047FB60B9E3691F7085F807802369B342E8
:100D50000DD201462046FFF7A6FE0028EDD004285C
:100D600008BF022003E0FFF77BFF0028E2D0BDE8C8
:100D7000F08100002DE9F04F002187B0D0F800A0ED
:100D80000446FFF76DFF0546002840F08C804FF0C9
:100D9000FF394FF0FF0804F12003C4F82C90C3463C
:100DA0000293A1695046FFF713FB054600287AD14C
:100DB000E6693778002F7AD0F27AE52F02F03F0308
:100DC000A37103D0100704D50F2B04D0C4F82C90C6
:100DD0004DE00F2B53D194F82B3059063DD47A06B1
:100DE00043D5236996F80D80E36207F0BF07737B54
:100DF00043453CD1738B002B39D13578DAF810B0EC
:100E000005F03F050D23013D5D432A4B012113F8F9
:100E1000012BB25A71B3FF2D059328D810460492C6
:100E200041F006F86B1C03903BF81500019340F06D
:100E3000FFFF039981421AD1049A019D059B114637
:100E40001D4A9A42E3D133785B0603D511B13BF8D2
:100E5000153063B9013F5FFA87FB00212046FFF799
:100E600022FE054600289CD01DE0BB45BFD04FF0B8
:100E7000FF0BF2E74FF6FF708242E1D0F7E7BBF1DC
:100E8000000F04D13046FFF79AF940450BD094F893
:100E90002B5015F0010599D102990B22304644F0F0
:100EA0001FF8002892D1284607B0BDE8F08F04252E
:100EB000F9E700BF76F8050883F805082DE9F04F3B
:100EC00090F82BB01BF0A00489B0054640F0E580F7
:100ED00007683A6932F81430002B6ED105F120060C
:100EE00096E807000DF114081BF0010F88E80700D1
:100EF00000F0DA80402385F82B304FF0010A98E8A3
:100F00000700B4463B69ACE803002CF8022BBAF1A9
:100F1000050F4FEA12428CF8002062D9981E524603
:100F200030F8021F00294AD1C446072102F00F0EF3
:100F30000EF13000392888BF0EF137000F2A0CF867
:100F4000010D01F1FF314FEA12104CD801F12003DD
:100F50000DEB03027E2002F8140C05F11F008446FD
:100F60000022914206D01CF801EFBEF1200F02F1E1
:100F700001093AD107299CBF01F120030DEB030CB5
:100F800002F1010296BF1CF814CC4FF0200C013185
:100F9000072A00F802C0EDD92846FFF7EBFE81468C
:100FA00000287DD10AF1010ABAF1640FA7D14FF0F0
:100FB0000709484609B0BDE8F08F01348AE74FF0D1
:100FC000100C01F0010E0EEB4202D30344BF82F479
:100FD000883282F02102BCF1010C4FEA5101F0D1BC
:100FE0009EE75246A0E70246A0E74A46B9E72969CC
:100FF0002846A1EB4411FFF733FE81460028D8D1E3
:101000003046FFF7DCF84FF6FF780190A9693846C3
:10101000FFF7DEF981460028CBD1EB69019AD7F8BA
:1010200010E05A73E1B24FF00F024FF00D0CDA727C
:10103000DFF8D8A018734A1E0CFB02F29876D87617
:1010400084461AF8019B404518BF3EF8120003F889
:10105000090003EB090B0CF1010C18BF01324FEA38
:101060001029002808BF4046BCF10D0F8BF80190F5
:10107000E7D1404502D03EF812200AB941F04001C4
:1010800019700123FB7100212846FFF70CFD8146F2
:1010900000288ED1013CB9D11AE04FF0060988E74B
:1010A000042886D185F82BB01BF0020F1BBF0C342F
:1010B0000D230124B4FBF3F418BF01342146284664
:1010C000FFF70EFE814600287FF473AF013C8ED1FE
:1010D000A9693846FFF77CF9814600287FF469AF9B
:1010E00001462022E86943F0D3FE03CEEB69186085
:1010F0005960B278318819819A7295F82B30EA6973
:1011000003F0180313730123FB7152E776F8050807
:101110002DE9F04F87B0036801930B782F2B06461B
:10112000884601D05C2B0AD1424613782F2B90467B
:1011300002F10102F9D05C2BF7D0002301E0019B02
:10114000DB69B36098F800301F2B00F21A8180230E
:101150000021304686F82B3007B0BDE8F04FFFF78E
:101160007FBDFE2D00F236812AF8153001350EE1E3
:10117000DDF814800424012D3BD1BAF800302E2B69
:101180003DD100232AF8153006F11F029D4294BF7D
:1011900020212E2101330B2B02F8011FF6D144F040
:1011A0002004E4B286F82B403046FFF7E3FD96F8C2
:1011B0002B30002800F0D380042840F00C819906E1
:1011C00003F0040240F1C780002A00F0DA80802397
:1011D00086F82B300020FEE008F101030593DDF8CE
:1011E000148098F800302F2BF6D05C2BF4D000241C
:1011F000C1E7022D03D1BAF802302E2BBDD00AEB85
:10120000450306E033F8022D202A01D02E2A02D110
:10121000013D002DF6D14FF000032AF815300AEBFE
:101220004502002D00F0D68000213AF81100202858
:101230000B4601F10101F8D00BB92E2802D144F080
:101240000304E4B232F8021D2E2901D0013DF9D188
:101250004FF020324FF0000972623262C6F8272048
:101260004FF0080B4F463AF813005A1C002800F0C4
:10127000C380202804D02E2807D1AA4200F0B080D5
:1012800044F00304E4B21346EDE7D94580F0AB80A7
:10129000AA4212D1BBF10B0F07D1A8E0AA4204D099
:1012A00044F00304E4B200F2A780BF00FFB22A4674
:1012B0004FF00B0B4FF00809E5E77F2837D944F0D2
:1012C0000203DBB240F2B5110392029340F07EFDBF
:1012D00010F0800FDDE902320FD05A4900F07F0094
:1012E000085C28B1584C14F8011B11B38842FAD19C
:1012F00043F00303DBB25F2011E0FF28F1D90BF1CB
:10130000FF31894504D344F00304E4B2D946BAE777
:1013100006EB0901040A81F8204009F1010906EBF6
:1013200009011C4681F8200009F10109ABE72346B9
:10133000D8E7A0F1410189B2192902D847F0020784
:10134000EDE7A0F1610189B219299EBF203847F06D
:10135000010780B2E3E7002A08BF05203BE05A07F7
:101360003FF538AFB379DB0638D5019B03F13C017B
:101370003369C3F308031944019B5879FFF787FACF
:10138000B0603368CDF81480D3F810A0002505A80C
:10139000FFF702F8471C1DD0B0F5803F24BF030CB7
:1013A0002AF8153083B228BF01351F2B7FF6E0AE37
:1013B0002F2B3FF414AF5C2B3FF411AF7F2B3FF684
:1013C000D0AE2249184611F8012B002A3FF4C9AECD
:1013D0008242F8D1062007B0BDE8F08F0520FAE779
:1013E000D945FFF457AFBBF10B0F7FF457AF44F073
:1013F0000304E4B24FF00B0B96F82030E52B04BF4A
:10140000052386F82030BBF1080F04BFBF00FFB2F0
:1014100007F00C030C2B03D007F00303032B02D1BE
:1014200044F00204E4B2A5073FF5BCAE47F3000365
:1014300003F010032343DCB2780748BF44F00804EC
:10144000B0E600BFF6F70508F6570508ED570508A2
:1014500000214171FFF70EB82DE9F04305468DB02C
:10146000914698460C46002900F0BD8003F03F06E7
:101470003146FEF7FFFF0746002856D14946684629
:101480000095FFF745FE20B99DF92B30002BB8BF22
:10149000062018F01C0F4CD000283DD0042844D161
:1014A0006846FFF70BFD00283FD146F008063107DC
:1014B000DDF81C9048D549466879FFF7E8F9804681
:1014C0004FF04CF8014609F10E00FEF765FE079B50
:1014D0002022DA72079900222846FEF76DFF079B4B
:1014E00000221A775A779A77DA770123EB71B8F1ED
:1014F000000F0ED041466846D5F83890FFF725FA20
:1015000098B949462846FEF763FF08F1FF336B613F
:1015100058B946F0400617E09DF8063013F0110F59
:101520005DD118F0040FC2D00820002323600746C5
:101530004BE00028F9D19DF80630DA064DD418F0BA
:10154000020F01D0D8074AD4AB6B079923626162BE
:101550006879FFF79CF9A060034601F11C00FEF7D3
:1015600019FE6A89E0608046B1064FF000002560F0
:10157000A28026746074E061606126D5B8F1000F26
:1015800023D0EA89C4F81480B8EB422F4FEA4226F0
:101590000DD919462068FFF782F901280346A8EB08
:1015A000060816D9421C16D04645F2D30020A36186
:1015B0000028BAD1C8F308023AB119462846FEF706
:1015C000F3FD70B100EB5820E06138460DB0BDE886
:1015D000F0830220EBE70120E9E70420A5E70720DC
:1015E000A3E70220A1E70927EFE72DE9F04F9A468C
:1015F00085B000238946CAF8003003A90446154681
:10160000FEF7ECFD064608BB667CFEB994F810B008
:101610001BF0010300937ED0E7686369FF1AAF42B5
:1016200028BF2F4697B16269DDF80C80C2F308032A
:10163000002B57D1B8F80E30013B13EA522B15D1CD
:1016400042B9A06801280AD802266674304605B05F
:10165000BDE8F08FA1692068FFF721F9F2E7431C8C
:1016600003D10123009E6374F0E7A061A1694046A5
:10167000FEF79AFD0028E7D0B7F5007F0BEB0002DC
:101680002FD3B8F80E1001920BEB572088424FEA87
:10169000572588BFA1EB0B05D8F800002B4649461B
:1016A00001F032F80028DCD198F807306BB1D8F897
:1016B0003800019A801AA84207D24FF4007208F14C
:1016C0003C0109EB402043F09FFB6D02DAF800304B
:1016D0002B44CAF8003063692B447F1BA944636123
:1016E000A0E7E2616569E169C5F30805C5F5007524
:1016F000BD42404628BF3D46FEF76AFE0028B0D1F5
:10170000616908F13C08C1F308012A464144484692
:1017100043F07AFBDAE7072698E72DE9F04F9A467F
:1017200085B000238946CAF8003003A904469046D4
:10173000FEF754FD064628BB667C1EBB237C9A0739
:1017400040F1A380636913EB080F01D36FEA03082C
:10175000B8F1000F12D06369039FC3F30802002A97
:1017600077D1FD89013D15EA53251ED173B9A168D2
:1017700071B92046FFF720F9014648B9237C43F0B0
:1017800040032374304605B0BDE8F08FA169F0E74F
:10179000012902D102266674F4E74B1C01D101260F
:1017A000F9E7A368A16103B9A160BA6BE3699A4242
:1017B00004D13846FEF735FD0028F0D1A16938463E
:1017C000FEF7F2FC0028E5D0B8F5007F05EB000B32
:1017D00032D3F98905EB582088424FEA58233868FC
:1017E00088BF4B1B5A464946019300F09CFF0546B3
:1017F0000028D4D1B96B019BA1EB0B01994209D20E
:101800004FF4007209EB412107F13C0043F0FCFA70
:10181000019BFD715D02DAF800302B44CAF80030FC
:101820006369A8EB0508A9441D44E3686561AB4200
:101830002CBFE360E5608BE76169E368994206D3FA
:101840003846FEF7EEFC0028A9D1C7F838B0C4F836
:101850001CB06569E169C5F30805C5F50075454526
:10186000384628BF4546FEF7B3FD002897D1636987
:1018700007F13C00C3F3080318442A46494643F0E5
:10188000C3FA4FF00103FB71C5E707267AE72DE99C
:10189000F34101A90546FEF7A1FC044668BB2C7C78
:1018A00014F0400429D04EF059FE019F296A804669
:1018B0003846FEF78DFD0446F8B96E6AF37A43F0B8
:1018C0002003F372AA6828683146FEF775FDE968BF
:1018D00006F11C00FEF760FC414606F11600FEF71B
:1018E0005BFC0123B474F4743846FB71FEF784FF8B
:1018F0002B7C23F0400304462B74204602B0BDE845
:10190000F08113B50446FFF7C2FF28B901A92046AC
:10191000FEF764FC00B9206002B010BD70B50E4641
:101920008CB000210546FEF7A5FD044660B931469E
:1019300068460095FFF7ECFB044690B99DF92B3003
:10194000002B04DA029BEB6120460CB070BD9DF8C1
:101950000630DB0609D507996879FEF798FFE8613C
:10196000F2E7042808BF0524EEE70524ECE72DE99B
:10197000F0470E460021D2B0317007469046FEF780
:1019800079FD8146E0B9FB69009702934546DDF891
:1019900008A0BAF1000F19D1454502D1013D2F230E
:1019A00073553346A91B5A5D03F8012BCA1890459D
:1019B000F9D8A8EB05030135A84538BF01231E441B
:1019C00000234846337052B0BDE8F08720216846B6
:1019D000FFF746F9044630BB06993846FEF7F8FC97
:1019E000044600BB07997879FEF751FF2146029023
:1019F0006846FFF735F90446A8B900216846FFF7A5
:101A0000A7F8044660B907997879FEF740FF50457A
:101A10000DD021466846FFF746F804460028ECD072
:101A2000042C08BF0224A146CAE71124FBE768463C
:101A30000CA9FEF717FC0DF14503204613F8012F02
:101A400004460130002AF9D18542EED3281B013D1E
:101A500022460DF1460130442D1B43F0D5F92F23CA
:101A6000735594E72DE9F7430D4601A90446FEF7A7
:101A7000B5FB0646002852D1667C002E4FD1E368A4
:101A8000AB4204D2227C12F0020F08BF1D46002296
:101A9000636962619DB90020E2686369934282BF15
:101AA000227CE36042F04002C3F3080388BF227443
:101AB000002B34D0E369834218BFE0612FE0DDF8EA
:101AC0000480B8F80E707F02FBB1013B6A1EB3FBC5
:101AD000F7F1B2FBF7F28A4217D37A421340A169B9
:101AE0006361ED1A0029D6D0BD42636922D86369CB
:101AF0002B446361C5F30803002BCCD04046FEF7AE
:101B000053FB50B100EB5520C6E7A16881B92046D0
:101B1000FEF752FF0128014605D1022666743046C1
:101B200003B0BDE8F083481C01D10126F6E7A160AF
:101B3000A161D7E73B446361237C9A07A5EB0709C2
:101B400006D52046FEF738FF054628B90146CEE700
:101B50002068FEF7A4FE05466B1CE6D0012DDCD9FB
:101B6000D8F82030AB42D8D9A56129464D46BBE70D
:101B700070B5054616460C4621B30021FEF77AFCE7
:101B800068B9256031462046FFF7C2FAE0B994F9FA
:101B90002B30002B0BDBA379DB0603D405200023BD
:101BA00023600EE06879E169FEF771FEA0606B8941
:101BB000A38000212046FFF753F80428EED0002828
:101BC000EDD170BD0920FCE70428E7D0E7E713B5A5
:101BD00001A90446FEF702FB00B9206002B010BD67
:101BE00073B50D4601A90446FEF7F8FAC8B935B930
:101BF0002946204602B0BDE87040FFF731B80146E3
:101C00002046FEF7A5FF10F0FB060AD12946204624
:101C1000FEF728FB31462046FEF745FF042808BFA3
:101C2000002002B070BD70B50E468CB00021044695
:101C30001546FEF71FFC0094044670B9314668460D
:101C4000FFF766FA044640B99DF92B30002B07DBFD
:101C50001DB129466846FEF705FB20460CB070BD55
:101C60000624FAE72DE9F84F884600210446FEF7DE
:101C700001FC054640B9D4F820A0A369AAF10202EC
:101C8000934204D8C8F800302846BDE8F88F63793D
:101C9000012B17D10227064639462046FEF7FFFDE5
:101CA000431C34D0012834D000B90136236A0137EF
:101CB000BB42F1D8C8F80060237AA66143F0010363
:101CC0002372E1E7E16A0746064604F13C0937B9A9
:101CD000204601F1010BFEF77BFBE0B95946637921
:101CE000022B0AD1E3199B8F03B901360237BAF1EF
:101CF000010AC7F30807EAD1DCE709EB0700FEF7A2
:101D000049FA30F0704308BF01360437EFE7012588
:101D1000D0E70225CEE70546CCE7F0B50E4699B0F0
:101D200002210546FEF7A6FB044688B931466846FF
:101D30000095FFF7EDF9044650B99DF82B30980651
:101D40003CD419063AD49DF80670FA0703D5072447
:101D5000204619B0F0BD07996879FEF798FDFB069B
:101D600006460CD46846FEF7DDFF04460028EFD196
:101D7000DEB9284619B0BDE8F040FEF73DBDEB697D
:101D80008342E4D00E9021460CA80C95FEF768FF24
:101D900004460028DCD101460CA8FEF7D9FE044613
:101DA0000028D4D00428D3D1DCE702463146684667
:101DB000FEF7CBFD04460028CAD1DAE70624C7E7C0
:101DC0002DE9F0410E4690B002210546FEF752FB88
:101DD000044600286BD1314604A80495FFF798F912
:101DE0000446002871D0042861D19DF83B1011F001
:101DF00020016CD168460095FEF7DEFD06460028FE
:101E000059D0012859D0431C5C425C414EF0A6FBDE
:101E10000746002C53D131462846FEF7C4FC044641
:101E200000284CD14FF02033C5F83D30C5F8413083
:101E3000A5F845302E2385F83C30102385F847302F
:101E4000394605F1520005F13C04FEF7A5F932468A
:101E500021462846FEF7B0FA05F15C031A4651F810
:101E6000040B42F8040B9942F9D12E23069A85F807
:101E70005D3028464FF00108FEF79EFA85F807808E
:101E800004A8FFF71BF80446C8B90B98394616306A
:101E9000FEF782F932460B992846FEF78DFA0B9B26
:101EA0001022DA7285F80780FEF7A6FC0446204669
:101EB00010B0BDE8F0810724A8E70224A6E70022BD
:101EC00031466846FEF741FDF1E70824EFE70624B6
:101ED000EDE7F0B50D46A1B0022104461746FEF726
:101EE000C9FA002877D1294608A80894FFF710F905
:101EF000002870D19DF84B3013F0A00F6DD10F9BCF
:101F00006D4603F12006186859682A4603C2083353
:101F1000B3421546F7D108AE0FCE14AD0FC50FCEA4
:101F20000FC596E80F0085E80F00394614A8FFF7A3
:101F3000EFF848B9169A0A9B9A4203D1189A0C9B5B
:101F40009A4203D0082046E0042844D114A8FEF7A2
:101F5000B5FF00283FD11B990DF10D0301F10D02D2
:101F60000DF11D0053F8045B42F8045B8342F9D184
:101F7000188810809B7893709DF80B30DA0658BF54
:101F800043F020030125CB72E571CB7ADB061BD52C
:101F90000A9A169B9A4217D06079FEF778FC0146A0
:101FA0002046FEF701F90146C8B12046FEF710FAB7
:101FB00088B994F85D302E2B06D1169A04F15C0195
:101FC0002046FEF7F9F9E57108A8FEF7ABFE10B957
:101FD0002046FEF711FC21B0F0BD0620FBE70220F1
:101FE000F9E70000F0B595B0064601910221FEF731
:101FF00041FA0446002833D102AF4FF02033029358
:1020000005467B60C7F80730019B1B781F2B20D843
:102010009DF80830E52B22D01DB16B1EFA5C202AFA
:1020200035D0002108A808960A91FEF719FE04464B
:10203000B0B9012108A8FEF78BFD98BB0F9A45B3F4
:102040003B4603CB1060516019889B7893721181D5
:1020500021E001A8FEF7A0F9B0F5803F03D30624E4
:10206000204615B0F0BD3FF0E3FE40F2B5113FF061
:10207000ADFE0028F3D01E4A12F8013B13B198427E
:10208000FAD1ECE7FF2822D80B2D29D1E7E71D462E
:10209000C2E7E52313700123F3713046FEF7ACFB72
:1020A0000446DDE70428FBD1002DD9D0012108A882
:1020B000FEF716FE04460028D2D1202201460F98D2
:1020C00042F0E6FE0F9B0822DA720F9AB8E7092D5C
:1020D000C5D805F150036B44020A03F8482C0135BA
:1020E00005F150036B44013503F8480C8CE700BF41
:1020F000E4F705082DE9F04FD0F800908BB01C46AE
:1021000000234371039103790293154605210DF1D4
:102110001F02484600F01CFB9DF81F30D80700F155
:102120005182590700F1508208AA0321484600F065
:102130000FFB30B9089A531EB3F5004F01D21A4273
:1021400001D0012308935DB19F4BA5F500729A421F
:1021500003D913200BB0BDE8F08F6B1E2B42F8D1D2
:10216000002C00F03382149BB3F5007FC0F02E8268
:10217000029B002B6DD0012300222146484600F02F
:10218000C3FA002840F0B882B4F8FE214AF655237D
:102190009A4201D00E20DDE7029B04EB031202F508
:1021A000D77392F8B221002AF4D003F10800FDF7AA
:1021B000F1FF804603F10C00FDF7ECFF8246BAF117
:1021C000150FCDF824A0E5D9B5F5813FC1D2039B09
:1021D00013F002030593039B51D003F00703022B76
:1021E00052D0039B03F00103C3F10303DBB2089A4F
:1021F000032B4FEA552502F1FF3CC2F1000E45D0FA
:10220000002D40F09D8071494FEA1A36012231F8C5
:10221000023B13B1B34240F2918040F6F573BAFB32
:10222000F2F69E429BBF06EB460601360236760862
:102230008CBF7600033606F2FF162B4615464FF08C
:1022400020028CBF02270127760A01924FF0010B72
:102250003BE009AA0121484600F07AFA002840F044
:102260004B82039B13F0080F099B0CBF4FF03F08F4
:102270004FF0000843458DD3A3EB080A9FE7DA0728
:102280007FF567AF0223B2E70323B0E7002D51D1FA
:102290004F4A4FEA5A41012532F8023B13B18B42B3
:1022A0004AD90023BAFBF5F24A499600A2F57F42CB
:1022B000F63A06F207268A424FEA56263FF66AAFFA
:1022C000002201924FF0200B032708EB0B02009233
:1022D000019AB118009A1144032F01EB0C0208BFB8
:1022E000009802EA0E02A2EB010206BF8018934496
:1022F000B618C8EB05120A4408BF009052453FF6D5
:1023000049AF019AAAEB0202A2EB0B02032FA2EB48
:102310000602B2FBF5F2049214D104994FF6F5725D
:10232000914200F26B81002B7FF434AF012D7FF6D8
:1023300031AF6D082B46B5E76D00ADE7520066E79B
:102340002A466AE7022F40F0528104994FF6F5724F
:10235000914208D9002B40F044816A00402A00F2E3
:10236000378115464CE7049940F6F572914200F228
:102370004581002B7FF40EAF6D00802D7FF640AFBE
:1023800008E7514604F12000FDF706FF5FE14EF03B
:10239000E5F8014604F12700FDF7FEFEC6F307232A
:1023A000E375802384F82430292384F826300A4BEF
:1023B000A67504F12B0203F1100153F8040B42F847
:1023C000040B8B42F9D181E100FEFF00C8F705083C
:1023D000D6F70508FFFFFE0F1D580508032F37D15C
:1023E000012308F106022146484600F09CF90599B0
:1023F0004FF40072204642F04BFD5223237063706D
:102400006123A37084F8E731049B41227221E270BA
:1024100084F8E41184F8E51184F8E621591E04F5E6
:10242000F470FDF7B9FE022384F8EC3108F10702DD
:102430000123214684F8FEB184F8FFA1484600F04C
:1024400072F9012308EB03022146484600F06BF9BC
:10245000149A00216FF30802204642F019FD032F61
:102460006FD1F8232370FF236370A370E37023718F
:102470006371A371E37123726372A3720F23E3721A
:10248000149B4FEA532A5645B34628BFD3462146EC
:10249000009A5B46484600F046F90146002840F0A5
:1024A0002B814FF40072204642F0F2FC009BB6EB09
:1024B0000B065B440093E6D1019B032F08BF2B461C
:1024C0000193019D009A554528BF55462B4621464C
:1024D000484600F028F9002840F00E81009B2B446C
:1024E0000093019B5B1B0193EBD1032F32D0099B1F
:1024F000B3F5803F30D2022F14BF01250425029B83
:1025000063B3002201232146484600F0FDF802464D
:10251000002840F0F180029B04EB031383F8B251D2
:1025200001232146484600F0FEF8002840F0E480F0
:1025300000221146484600F00BF9003818BF012070
:1025400008E6012F6D49204618BF6FF00701FDF71F
:1025500023FE95E70C25D2E70625D0E7039B1B0752
:10256000E6D402994FF40072204642F091FC5523C4
:1025700084F8C251099D84F8FE31AA2384F8FF3102
:1025800005EB080243F6C163B2FBF3F2FE2384F8C5
:10259000C331930843F03F03012684F8C43184F823
:1025A000C521414604F5E37084F8BF6184F8C06139
:1025B000FDF7F2FD294604F5E570FDF7EDFD029A01
:1025C0003346AEE70320C5E50A20C3E51120C1E587
:1025D000059B002B7FF45CAE802A3FF6DBAD1546F1
:1025E0001BE6059A002A3FF4D5AD1D465AE6049A2B
:1025F00040F6F5739A423FF6CDAD01274FF40072D5
:102600000021204642F044FC3D4B84F80EB01A688D
:1026100022605A6862601A899B7AA372022323732C
:1026200001232374FB1E18BF0123CBF3072B5B0090
:10263000BAF5803F2281657384F80FB0A374BFF4AC
:10264000A0AE84F813A0CAF3072A84F814A0F823D4
:1026500063753F232376FF23A376414604F11C00D4
:10266000FDF79AFD032F7FF492AE4DF077FF014600
:1026700004F14300FDF790FD314604F12400FDF71D
:102680008BFD022384F82C30002384F82D3084F84D
:102690002E3084F82F3084F8313084F833308023A2
:1026A00084F840302923012284F84230154B84F805
:1026B0003020062284F8322003F1100104F1470291
:1026C00053F8040B42F8040B8B42F9D119889B781C
:1026D00011804FF0550B4FF0AA0A9370214684F8F1
:1026E000FEB184F8FFA101234246484600F01BF8E2
:1026F000059000283FF472AE01202BE5F8FFFF00A3
:10270000FD5705080958050810B50C4611461A462C
:1027100038B1234604303EF0BBFF003818BF01201B
:1027200010BD0420FCE710B50C4611461A4650B106
:10273000234604303EF0D2FF10F11E0F05D00038C2
:1027400018BF012010BD0420FCE70220FAE70000BA
:1027500070B50C4615460646002831D0234A01F0D4
:102760000703D15C71B3002204303EF0E3FF062C76
:1027700026D8DFE804F008050A15251818000620F9
:102780002BF09CF92860002070BD062804D14FF47E
:1027900000702880B060F6E72BF090F980B2F8E77F
:1027A00001232B60EFE7062801D0430806D1336AE6
:1027B000B3FA83F35B099B002B70E4E70123FBE78B
:1027C0000420E1E7062CFBD801A353F824F000BF56
:1027D000872700087F2700088F270008A127000807
:1027E000C1270008AF270008AF270008D4F6050866
:1027F000022970B5044615461E4613D15368012BB5
:102800000AD0022B0CD01BB91168201DFFF72AF942
:10281000A3692B60002070BD81692B681944F4E71F
:102820000169FAE701290AD10430FFF730F80028DE
:10283000F0D0084B1B5C33604FF0FF30EBE704290E
:1028400006D14368002BE5D00430FFF75AF8EEE7D5
:102850001623F0E7B4F7050837B51D46043001AB81
:102860001446FEF75AFF38B1064B1B5C2B604FF045
:10287000FF34204603B030BD019BA342F9D01C2396
:10288000F4E700BFB4F7050813B51C46043001ABEC
:10289000FEF7ABFE30B1044B1B5C23604FF0FF3002
:1028A00002B010BD0198FBE7B4F7050870B5054606
:1028B00008460C462BF04AF82346024602492846B1
:1028C000BDE8704001F04EB8D8570508F8B5064687
:1028D00010460F4631F0EAF92B49421E2B480024DE
:1028E00012F8013FBBB92C202BF01DF805463846E5
:1028F00031F0DCF92F1D0246E3B206F144003946FF
:10290000FEF7AAFD0646B8B328461DF0D5FC204BBD
:10291000985D2AF057FA782BE2D8712B08D8612BF2
:1029200025D0622B26D02B2BDAD144F00304D7E735
:10293000723B062BD4D801A555F823F05D29000879
:10294000E128000859290008E1280008E1280008CA
:1029500063290008692900080B49C1E744F0010414
:10296000BEE744F00A04BBE744F00604B8E744F0CD
:102970001204B5E70146B3E7E30603D529693846F3
:10298000FFF770F82846F8BDE4F6050814F70508C7
:10299000B4F705082DE9F04F2DED028B87B006291D
:1029A0001E46B0EE408A9DF848300191074614D883
:1029B000012905D93F2307F8013B00233B7002E0C2
:1029C000019B002BF9D1019B012B94BF002001201A
:1029D00007B0BDEC028BBDE8F08F10EE101A002995
:1029E000054622DAB4EE400AF1EE10FA1DD62D2388
:1029F00005F8013BB1EE408A9FEDC87AF0EEC87A47
:102A0000F4EE477AF1EE10FA02F0200A12DD4AF0F5
:102A100049004AF04E01EB1C4AF04602AA7000221F
:102A200028706970D81B1A70D2E7002BE4D005F823
:102A3000013BE1E7B4EE488AF1EE10FA06D74AF01E
:102A40004E024AF04101EB1C1046E7E7002E42F02F
:102A50002008B8BF0626B8F1670F02D1002E08BFC4
:102A60000126019BA5EB0709A3EB090918EE103A13
:102A7000191E09F1FF3B1CD1B8F1660F0BD1721C76
:102A80005A45A8BFA9F10306721C662100208146A1
:102A90008446044647E0721D5A45A8BFA9F10706BF
:102AA0000020B8F1650F41460246F0D14FF02B09E6
:102AB000EEE7C1F3C752A2F17F0307EE903A9FED14
:102AC000987AF8EEE77AB1F17E5F67EE877AFDEEED
:102AD000E77A17EE904A80F0BE806242F8EEE70A8D
:102AE000B2EE040A029240F057FE029A1446B4EE87
:102AF000C08AF1EE10FA00F19080B8F1660F08D0AC
:102B0000B8F1670F40F09480042C00F39180621EAE
:102B10001644721C5A45A8BFA9F103060020721C76
:102B2000814684466621652926EAE67340F0EC80FA
:102B30005A1C0646ACEB00004FF0000BF2EE048A84
:102B40000290002A80F2EE80BBF1040F3DDD681E8A
:102B50004FF0300C02782E2A064600F1FF30F9D0F3
:102B6000A2F1300EBEF1090F40F215810136327824
:102B7000302A2AD170782E2840F01A81662900F078
:102B80001781B9F12D0F3070727040F00F81013C48
:102B900008BF4FF02B09B54234BF002101210029A5
:102BA00006F10100A6EB0501A0EB050004BF002122
:102BB0000120A5EB0602294408BF00222844019306
:102BC00042F052F93122019B3270B8F1670F09D1FE
:102BD00043B12B461D4613F8012D302AFAD02E2A78
:102BE00008BF1D46B9F1000F13D00A2294FBF2F181
:102BF00002FB114491FBF2F302FB13134AF0450A66
:102C00003033303485F800A085F80190AB70EC705B
:102C1000043500232B70E81BDAE60134634200EE32
:102C2000903AB2EE040AF8EEE00A40F0B5FD5EE735
:102C3000A9F10603B34205DCB8F1670F14BFA9F18F
:102C400007061E4688EE008A6042414600224FF089
:102C50002D09944667E7631C00EE903AB2EE040A31
:102C6000F8EEE00A40F098FDB4EEC08AF1EE10FAFA
:102C700016DAB8F1660F21D15C4522DA3219013239
:102C80005A4506DBABEB0403012BA3F1020608BF98
:102C90000026321901322046A4464FF0000941E7D0
:102CA000A31C00EE903A621CF8EEE00AB2EE040AB1
:102CB000029240F071FD029A1446D5E7B8F1650F13
:102CC0000CD1A9F10603B34201DCA9F107060022E9
:102CD00020464FF02B099446652124E7B8F1670F91
:102CE00009D1321D5A45A8BFA9F10606A64208DD42
:102CF000631CF61ACDE72046414600224FF02B090F
:102D0000A7E720466721F8E767297FF412AF002E76
:102D1000D6BF01221A4613460BE700BFFFFF7F7F95
:102D20009B209A3E002E33DD07EE906AB2EE040A35
:102D3000F8EEE70ACDE90432039140F02DFDDDE91C
:102D40000313059A4FF0000BB4EEC08AF1EE10FAAF
:102D500006D40BF1010BBBF1090F38EE408AF3D119
:102D6000AC466AB102980BF1300EF0420CF801EB60
:102D700006D12BB14FF02E0E05F1020C85F801E0C3
:102D8000002ED8BF28EE288A013A013E6546D8E6D3
:102D9000B7EE000AD6E7392A02D001323270E6E6F1
:102DA000BE4280F801C07FF4D5AEE0E60134F2E621
:102DB0006A1C0198D11B814238BF1546EBE600BF63
:102DC00008B5044631B1054B4A6C0360096800231D
:102DD0002CF0E4FF20461DF01FFA00BF7C9605088A
:102DE0002DE9FF47054601921F4646182AB1023ACF
:102DF000222A02D9364829F0DFFDB5422C4622D3DB
:102E00004FF00008311B204601AA28F056FB251878
:102E1000A9460024B1454B4627D3B8F1000F00D096
:102E20006442640044F00104AB4204D01D46B54244
:102E30002B4642D348D02749019A27482CF06EFFF1
:102E40003946FFF7BDFF15F8010B1EF025FB804644
:102E50000028D2D123782B2B01D12C46D2E72D2B61
:102E6000CED12C464FF00108CCE719F8012BA2F186
:102E7000300ABAF1090F09D95F2ACBD042F02002FB
:102E8000A2F161011929C8D8A2F1570A0199514547
:102E9000C3D9204637F048FC28B9019B03FB04A4A2
:102EA00094EA4403B6D5019B03954246711B03A8DF
:102EB0002EF018F9039B0446B6E7187801351EF08A
:102EC000EBFA0028B3D1B6E7204604B0BDE8F0879E
:102ED000AE410508C3410508EC9505082DE9F04F02
:102EE0002DED068B85B09FEDB39ADFEDB3AADFED34
:102EF000B39ACDE901230027149B03930446461897
:102F0000B846B0EE49AAB44209D220781EF0C4FAFD
:102F100028BB23782B2B2AD10134B4422DD3002295
:102F2000DFEDA48A25461046134696469346114681
:102F3000B54280F01381AC461CF801ABAAF1300910
:102F4000B9F1090F00F2E780022940F096809C4D0C
:102F5000AE4502DC0A2505FB0E9E6546E8E7013416
:102F6000B0EE498AB0EE489ACDE70127FAE72D2B5B
:102F700003D101344FF00108CFE7237843F0200359
:102F8000692B32D1A31C9E4240F24381637843F007
:102F900020036E2B40F03D81A37843F02003662B85
:102FA00040F03781E31D9E4204F103051AD9E3780E
:102FB00043F02003692B15D1237943F020036E2BB6
:102FC00010D1637943F02003692B0BD1A37943F02F
:102FD0002003742B06D1E37943F02003792B01D130
:102FE00004F108059FED778A14E06E2B97D1A31C9E
:102FF0009E4240F20E81637843F02003612B40F043
:103000000881A37843F020036E2B40F002819FEDEE
:103010006E8AE51C019B7BB1B5420DD22B7843F043
:1030200020036A2B08D1A542F7EE007A08BFB0EE64
:10303000678A013547F00207B8F1000F03D0B1EEFF
:10304000488A4FF00108AC4200F0CC80B5422C46D3
:10305000C0F0BC8040F0C180012F00F0C380002F81
:1030600000F0C780F0EE480AB0EE490A05B0BDECAA
:10307000068BBDE8F04F2BF089BDB9F1000F20D0D1
:10308000F4EEE98AF1EE10FA1BDAF2EE047AEBB90B
:103090000346F2EE047A4BBBF4EEE98AF1EE10FA45
:1030A000084634D507EE909AF8EEE77AB2EE047A45
:1030B000E8EE877A0129F0EE678A00D1013A1846D6
:1030C0004BE709B9013348E7013046E7F4EEE98AF6
:1030D000F1EE10FA46BFB0EE4A7AA8EEA77A0132B6
:1030E00003F1FF3348BFF0EE478AD0E7F4EEE98AF8
:1030F000F1EE10FA42BFB0EE4A7AA8EEA77A02F1DA
:10310000FF3203F1FF3348BFF0EE478AC3E70029DF
:10311000D5D1013221E721B9BAF12E0F03D1012116
:103120001BE7022916D04AF02009B9F1650F11D129
:10313000664504D969782B2905D105F1020CB445FF
:1031400050D0022109E72D29FBD105F1020C4FF0E7
:10315000010BF4E7BAF15F0F3FF4FFAEBBF1000FD4
:1031600001D0CEF1000E1344734413F1250FBCBF00
:10317000253368EEAA8A13F1090F0BD35B4200EEE8
:10318000903AB2EE040AF8EEE00A40F005FB88EE51
:10319000808A3FE707EE903AB2EE040AF8EEE70ABB
:1031A00040F0FAFA20EE288A34E79FED028A25469D
:1031B00042E700BF00000000EA1C0802EC78AD60A6
:1031C000646666060000807F0000C07F20780135BD
:1031D0001EF062F900287FF439AF029B13B1002F73
:1031E0003FF4C3AE104911482CF002FD0399FFF7DC
:1031F000E7FD029B23B1DFED0E0AB0EE480A35E78A
:10320000B0EE480A05B0BDEC068BBDE8F04F2CF0DF
:10321000D5BE019B002BC8D1B8F1000FE2D09FEDC5
:10322000048A25460BE700BFCF410508EC95050849
:10323000000000000846114642F0B4BD70B50546D6
:1032400008460E4641F05EFE044620B102466B6819
:10325000286831469847204670BD00002DE9F74F99
:103260008A469DF8301091460D9A11F0DF0F064600
:10327000A2EB09023FD030290CA9254F1ABF4FF00D
:1032800001080F464FF0100813F0800537D002EB0D
:10329000D2746510A2EB6404002D37DDAB46D8452F
:1032A000424673683068A8BF5A463946019298472B
:1032B000019AABEB020BBBF1000FF0DCB9F1000F90
:1032C00005D0736830684A46514698474D44002CF3
:1032D0000DDD2544A045C146A8BFA14673683068EE
:1032E0004A463946A4EB09049847002CF2DC2846EC
:1032F00003B0BDE8F08F074F4FF01008C4E713F09C
:10330000010401D11546C7E71446D7E70025D5E7E4
:1033100074850508858505082DE9F04389B00646C2
:103320000020119D9DF84880139F8DF80F000AB36F
:1033300081421ADA2D228DF80F204942109A08ACEA
:10334000A2F10A000DF11009B1FBF3FC03FB1C1202
:10335000092A8CBF1218303204F8012D4C458E46D4
:1033600061460ED07345EFD90BE0A80727D52B2275
:103370008DF80F200029E1D130238DF81F300DF199
:103380001F0415F040099DF80F301CD023B3012213
:10339000CDE900822B460DF10F013046FFF75EFFAD
:1033A000013F814608AACDE900872B46121B214622
:1033B0003046FFF753FF484409B0BDE8F0836A0781
:1033C000D8D52022D4E7002BECD004AA9442E9D926
:1033D00004F8013C013CE5E79946E3E72DE9F04FAD
:1033E00093B081461E46C8079DF874301C9D079314
:1033F000DDE91E870C4692460BD4A10703D1216854
:103400007F4B994205D020462AF058FB440044F0F7
:10341000010415F0810306D1079A302A03D1B8457B
:10342000B8BFB8461F4620462DF06DFD00280DF1AF
:10343000280B18DBAA0712D52B238DF828300DF1A5
:103440002903E806F6B21CD5BAF1020F0DD11946D0
:10345000302001F8020B701C58700B4611E06B070E
:1034600001D52023E9E75B46EBE7BAF1080F62D10B
:1034700030211970A90545BF06F10E0159700133BD
:103480000233002115F0200F1970A3EB0B030693F4
:1034900014BF2C230B46012F0EA8C8BF45F04005D2
:1034A0000B9015F040024FF01000CDE90C01CDE972
:1034B00002638DF82710059247D0CDE900A123467D
:1034C0000DAA0CA90BA82DF0F3FB03782D2B824637
:1034D00006D18DF827300D9B013B00F1010A0D93B9
:1034E000012F40F385800D9C059BBC42B8BF3C4634
:1034F0002BB19DF8273003B10134069B1C44A04535
:103500002EDD15F00103A8EB04042AD126461C4643
:1035100025F001054EB1202300930023019639497F
:103520001A464846FFF79AFE0646059B002B5CD1DB
:10353000302307933AE0BAF1100FA2D11946302098
:1035400001F8020B06F1170086E70AABCDE900A3EC
:103550000DAA23460CA90BA82DF0AAFB8246BFE7B3
:1035600000240026D4E7002426469DF827305BB1CE
:1035700000230122CDE900320DF127014846FFF773
:103580006DFE08F1FF380644069B63B1002301225B
:10359000CDE900325946069A4846FFF75FFE069B82
:1035A0000644A8EB0308012FD8BF4746079B0093AA
:1035B0000D9A01972B4651464846FFF74FFE0644A9
:1035C0004CB12023009300230E4901941A4648462B
:1035D000FFF744FE06440B980EAB984201D01CF056
:1035E0006BFE304613B0BDE8F08F30230793BCE785
:1035F000059B002BB7D11C461E464746D6E700BFA9
:10360000289C0508A65805082DE9F0431646B20780
:103610008BB098465ABFC6F380035B012B230093FF
:103620000A46139BDDF848900746202102A8FFF7C1
:10363000B1F9F305044610D5431C1F2B0DD800F13A
:1036400028020DEB0204252204F8202C03F12802A5
:103650006A44002102F8201C1C4616F040051DD0CB
:103660009DF808302F2B4FF0000319D8012202A932
:10367000CDE900323846FFF7F1FD09F1FF39054683
:10368000013C0DF10901CDE9008933462246384657
:10369000FFF7E4FD28440BB0BDE8F08302A9F2E790
:1036A00002A91D46EFE700002DE9F04F824689B0E0
:1036B000144600260B461D4613F8012B82BBA94277
:1036C00031D30B78002B00F04581013120234FF0DE
:1036D00000080A4612F8015B3DB12B2D39D02CD8D9
:1036E000202D39D0212D3AD000250F4611F8012B7D
:1036F000A2F13000092835D92E2A5ED17A782A2AFB
:1037000036D000220F4611F8010BA0F1300CBCF1AD
:10371000090F30D80A2707FB020BABF13002F1E7A3
:10372000252AC8D1CBE76F1ADAF80430DAF800009E
:103730003A4698473E442946C3E72D2D05D0302D03
:10374000D2D148F040082B4601E048F0010811466C
:10375000BFE748F00208FAE748F00408F7E748F046
:103760000808F4E70A2000FB0522A2F13005BCE7B7
:1037700054F8042B023722EAE27B3A786C2A08BF1D
:10378000013797F80090B9F1000F00F0E380B9F12C
:10379000780F09D8B9F1570F12D8B9F1470F59D896
:1037A000B9F1440F00F2C380DAF80430DAF800000F
:1037B000012239469847013663E04FF0FF3BDCE7D2
:1037C000A9F15802202AEFD801A151F822F000BF38
:1037D0000D390008A9370008A9370008A9370008E3
:1037E000A9370008A9370008A9370008A937000839
:1037F000A9370008A93700086B3800088D38000881
:10380000F13800082F3900082F3900082F39000837
:10381000A9370008A9370008A9370008A937000808
:10382000A9370008A9370008A9370008A9370008F8
:103830005B380008A1380008A9370008CB38000819
:10384000A93700080D390008A9370008A937000872
:103850000D390008B9F1500FA6D1CDE90235612329
:103860000093CDF8048010235FE054F8042BCDE9D9
:10387000003543463AB1394904225046FFF7EEFC81
:103880000644791C16E736490522F6E754F8042B5E
:103890008DF81C20CDE900350122434607A9ECE74D
:1038A00007A954F8040B05931DF0D3FBBBF1FF3FB0
:1038B000059B014604D0079A934538BFCDF81CB04C
:1038C000CDE90035079A4346D7E754F8049B0593A2
:1038D000484641F017FBBBF1FF3F059B024602D073
:1038E000584528BF5A46CDE9003549464346C4E706
:1038F000CDE9023561230093CDF804800A2301222B
:1039000054F8041B5046FFF707FDB9E729F00F02F2
:1039100009F101010F3A01F00601D2B2CDE90235F9
:10392000CDF804800092C1F110030022E8E70734CB
:1039300024F00704F4E8020105934DF013FDCDE9EE
:10394000005B00EE100A059B424649465046FFF7D1
:103950005BFE95E7304609B0BDE8F08F6C3C05088A
:10396000713C05080EB403B503AA52F8041B01927A
:10397000FFF79AFE02B05DF804EB03B07047000059
:020000040802F0
:10000000FEE700000F49D1F8883043F47003C1F8CF
:1000100088300D4B1A68002042F001021A60986087
:100020001A6822F0847222F480321A60074A5A60F9
:100030001A6822F480221A60D8604FF000638B6047
:10004000704700BF00ED00E000380240103000248F
:1000500030B5002495B010252A4621460AA80494FC
:1000600024F016FF264B01941A6C42F080521A6459
:100070001B6C03F080530193019B224B02941A687E
:1000800042F440421A601B68109503F44043029307
:10009000029B059402230122CDE90834CDE90E34F8
:1000A0000F23CDE90B2503934FF4A8720423CDE968
:1000B0001123072313934FF4A0514FF4805308A842
:1000C000CDE9061328F024FC10B10F482AF01CFCDF
:1000D000119B109A30211B01B3FBF2F3B3FBF1F239
:1000E00001FB1232003A1299B3FBF1F118BF012261
:1000F00003A82BF00DFA08B10448E7E715B030BDAE
:1001000000380240007000400C1705081E17050853
:100110000446DFF82CD00B490B4A0C4B03E051F896
:10012000040B42F8040B9A42F9D300200849094A0B
:1001300001E041F8040B9142FBD320462AF038BD80
:10014000F83F0120FC3306080000002030000020AA
:1001500030000020E40A002040F8044B40F8045B23
:1001600040F8046B40F8047B40F8048B40F8049B93
:1001700040F804AB40F804BB40F804CB40F804DB83
:1001800068467047024B5A69026058610020704708
:1001900030000020024B5A6912685A61704700BF54
:1001A00030000020024B9A69C0E900219861704735
:1001B00030000020044A93691968916110B15A68AF
:1001C00018461047704700BF3000002038B5054D75
:1001D0000446AB690BB1A34200D338BD0120FFF741
:1001E000E9FFF6E730000020C460056146618761E1
:1001F000C0F81C80C0F82090C0F824A0C0F828B037
:10020000C0F82CD080ED0C8B80ED0E9B80ED10ABF8
:10021000C0F808E0FFF7B6BF124D6C6908B50CB91D
:100220002AF0B2FC60602046FFF7D0FF23686B61C4
:100230002046C468056946698769D0F81C80D0F8F3
:100240002090D0F824A0D0F828B0D0F82CD090ED91
:100250000C8B90ED0E9B90ED10ABD0F808E00120D8
:10026000704700BF3000002010B50021044600F0A8
:10027000BDFA18B914B120460CF08AFB10BD00215C
:1002800000F0B4BA10B50121044600F0AFFA18B975
:1002900014B120460CF07CFB10BDFFF7E5BF10B594
:1002A00001220C4600F0C0FB18B914B120460CF036
:1002B0006FFB10BD00F0B8BB00F078BB2DE9F04338
:1002C0002B4C864600254FF0030CD4F87C0200210D
:1002D00001310EEB01039A0803F00303825C5B001B
:1002E00042FA03F303F00303022BF1D0D4F888029F
:1002F000090100EB0E108E0889B300EB8606036837
:100300001A0729D1D4F888125A1AC2F3011E994249
:100310004FEA92174FEA4E0E4FEA12121CD8D4F849
:100320008C12994218D9D4F87C8218F8071041FA37
:100330000EF303F003030CFA0EF9012B41EA090155
:100340000AD104EB450E3F2D08F807109ABF01357E
:10035000AEF89C22C4F898320430B042CFD12DB10F
:10036000013D04EB4503B3F89CE2AEE7BDE8F08342
:100370003000002030B51C4CD4E9A153C01AC1098B
:10038000C0F3021E6B5C012202FA0EF223EA0203A2
:100390006B54D4F8902283094FEA101CB2EB901FE3
:1003A000D4F87C0288BFC4F89032C15C4FEA9C0E3E
:1003B0000CF0030303255B0005FA03F321EA0301B4
:1003C00000F80E100CF1010CD4F87C024FEA9C0EE0
:1003D0000CF0030310F80E105A0041FA02F202F07A
:1003E0000302022AE7D030BD3000002021F00F01C7
:1003F00038B50B1A134A144C013BDB00A2FB032354
:100400005B0A9A00C4E99F030546C4F88C120732C0
:10041000A1EB831101331D4403EBD202C4F888120F
:100420000021C4F8845224F033FD002301214FF051
:10043000FF32C4E9A433C4E9C8322381A4F81C13F1
:1004400038BD00BFF32C23FA30000020024A138984
:1004500001331381704700BF30000020024A138926
:10046000013B1381704700BF30000020024B188908
:10047000003818BF0120704730000020F8B51B4D30
:100480002B8900220133C5F820232B81C5F898223F
:1004900005F1080405F5E87654F8043F1A071AD167
:1004A000D5F88822981AC0F3011193424FEA901CA4
:1004B0004FEA41014FEA10100DD3D5F88C22934238
:1004C00009D2D5F87C7217F80C2042FA01F303F038
:1004D0000303012B02D0A642DED1F8BD03238B40DB
:1004E0001A4307F80C20FFF7E9FEF4E7300000207C
:1004F00081B3F8B5184E0F46051F002455F8043F88
:100500001A071AD1D6F88822981AC0F3011C9A4209
:100510004FEA90114FEA4C0C4FEA10100DD8D6F864
:100520008C229A4209D9D6F87CE21EF8012042FAC0
:100530000CF303F00303012B03D00134A742DDD1F8
:10054000F8BD032303FA0CF31A430EF80120FFF75A
:10055000B5FEF2E7704700BF300000202DE9F04FF4
:100560005F4DD5F89832D5F8801283B0002B00F09B
:10057000AF8089000026C5F89862002900F0A180AC
:100580000027D5F87C02BB0807F00302C35C5200C9
:10059000134103F00303032B0C467ED001378F4237
:1005A000EFD3D5F89832002BE5D1D5F89432A34299
:1005B00080F084805C1C4FF0000BDC465F4644E01A
:1005C000012B3FD1D5F884224FEAD70A07F007095B
:1005D00012F80A3043FA09FC1CF0010F02EBD702B3
:1005E00028D0D5F88812380151F800C001EB071067
:1005F000BCF1000F13D06A4640F205310BF08EFBC0
:10060000009B3BB10CF020FCDDE900010CF0ECFBA1
:100610000CF030FCD5F8842212F80A305244012143
:1006200001FA09F923EA09031370D5F87C0210F8DE
:1006300008104044032303FA06F621EA0606067072
:100640004FF0010C0137A7421ED2D5F87C224FEAA9
:10065000970807F0030612F80810760041FA06F32F
:1006600003F00303022B02EB97002DD0032BA7D13D
:100670000223B34021EA030102F80810BB46013708
:10068000A7424FF0000CE0D32B890022013BC5E9C3
:10069000A42B2B8103B0BDE8F08F3846FFF70EFE88
:1006A000D5F88012013789008F420C46FFF469AFFC
:1006B000D5F89832002B7FF45EAF76E7002C7FF4FC
:1006C0007AAF4FF0000BDFE7BCF1000FD6D0B1E7F7
:1006D000D5F894328C00A342FFF46CAFEEE700BF74
:1006E00030000020044B1A8900210132C3F898120F
:1006F0001A81FFF733BF00BF300000203A4B2DE9CD
:10070000F04FD3E9A2420021121BD3E99F54C0E964
:100710000111C0E90311C0E9051102604FEA840C20
:100720008B460E460C460A46894688468E4615F884
:1007300009304FEA480843FA08F303F00303012B9A
:1007400048D0022B42D02BB90BF1010BC0F808B0F6
:1007500001361C46013294450DD04FEA920902F051
:10076000030815F809304FEA480A43FA0AF39F07CD
:10077000DDD403F00303012C13D0022C04D147690C
:1007800007F10108C0F814808769A74238BF846167
:10079000944511D0012B21D04FEA920902F00308B1
:1007A000C5E7076907F101088769C0F81080A7420B
:1007B00038BF84619445EDD1B64500D2C6600901C9
:1007C0004FEA0B17C0E90117BDE8F08F0131416016
:1007D0000134BFE7013141601C46BBE7B64501D299
:1007E000C660B6460026D7E7300000202DE9F84362
:1007F00000F10F06360953D06B4C2389002B4FD1E3
:10080000B4F81C230D46002A50D0D4E9C8129142F6
:100810004AD2D4F89002D4F88012884238BF9E465B
:100820004DD2D4F87CC201380139604461440022C1
:10083000CCF1010718E0013296424BD913F00C0FAE
:100840001ED10132964240F2A08013F0300F1CD12D
:100850000132964240F29E803F2B1AD801329642D6
:1008600040F29D80814218D007EB000810F8013F4C
:1008700013F0030FDFD013F00C0F4FF00002E0D0A5
:1008800013F0300F4FF00002E2D03F2B4FF0000288
:10089000E4D981424FF00002E6D1BEF1000F0ED044
:1008A00000231846BDE8F8832EF0F8F9D4F890023A
:1008B000D4F880128842F3D24FF0010EB1E72EF047
:1008C000EDF9D4F89002D4F8801281424FF0010E75
:1008D000A7D8E5E74FEA8808A8EB0201012A01F151
:1008E000010704D108F101039B08C4F89032D4F841
:1008F0009432434538BF4346B808C4F8943207F0F1
:10090000030E1CF800904FEA4E0E0123023103FA49
:100910000EF343EA090388450CF8003012D34FF078
:10092000020E8808D4F87CC201F003031CF8009082
:100930005B000EFA03F3013143EA090388450CF822
:100940000030EED2D4F82033D4F888823344C4F88F
:10095000203308EB071312011846002124F098FAFF
:10096000EA074FEA071603469BD50022D4F8840213
:1009700048F80620F9080122445C07F00707BA404E
:10098000224342541846BDE8F8834FEA880808F12C
:100990000108A1E74FEA880808F102089CE74FEA3E
:1009A000880808F1030897E730000020034B1A89F4
:1009B00012B908B1FFF7DEBC704700BF300000205D
:1009C000034610F00F001BD1164AD2F88812994244
:1009D00018D810B4D2F88C429C420ED95B1AD2F8C7
:1009E0007C429A09C3F30111A25C49000A4102F05A
:1009F0000302012A4FEA131305D05DF8044B704738
:100A000000207047704701301A18910802F0030265
:100A1000615C520041FA02F202F00302022AF2D0B3
:100A20000001EAE7300000202DE9F84F0F460646A6
:100A3000002800F0C780704D2C89002900F08780C5
:100A4000002C40F08780D5F88802D5F880C2301A93
:100A5000030903F1010E0F31BEEB8C0F4FEA1111A8
:100A60004FEA8C0A80F0B480D5F87C92A4464FF00F
:100A700001084FEA9E040EF0030B19F804404FEAF8
:100A80004B0B44FA0BF404F00304022C66D02CB98F
:100A90000CF1010C0CEB08048C4261D3414552D09F
:100AA00063D3C4448C451BD2D5F88412C009095CB9
:100AB000002A4FD003F00703194101F00101384625
:100AC000FFF794FE0446002844D04FEA081231464E
:100AD00024F09AF92B89BBBB3046FFF74BFC33E07F
:100AE0005C1843449C421FD9980803F0030219F88C
:100AF000007052004FF0020C01330CFA02F23A433C
:100B00009C4209F800200FD99808D5F87C7203F0B0
:100B1000030217F800E052000CFA02F2013342EA35
:100B20000E029C423A54EFD1D5F89432A1EB080260
:100B30009C4238BF1C46120106EB08100021C5F884
:100B4000944224F0A5F934462046BDE8F88F0CB94C
:100B5000FFF710FC00242046BDE8F88F08F10108DB
:100B60000EF1010EF24584D198E75C18A00804F05C
:100B7000030719F800E07F004FF0030CA8EB010118
:100B80000CFA07F72EEA0707012909F8007004F1AB
:100B9000010410D003EB080EA708D5F87C3204F04E
:100BA0000302D95D52000CFA02F2013421EA02027A
:100BB0007445DA55F0D1D5F890328342C3D9C5F8DF
:100BC0009002C0E701463846BDE8F84FFFF70EBE79
:100BD0000129B8D011B14FF0010865E7D5F87C4282
:100BE000800903F0030359000322235C8A4023EAAF
:100BF00002032354DFE700BF3000002010B58AB0A5
:100C0000044603A8FFF77AFDDDE90430039A00905B
:100C100007492046E2F7A6FEDDE9083206980549B5
:100C2000CDE90020079A2046E2F79CFE0AB010BDED
:100C300060610508846105082DE9F84F4E4F4F4962
:100C4000D7F888228046E2F78DFED7F88012890017
:100C50007AD0DFF85C91DFF85CA1002515F03F0643
:100C60004FEA950B33D005F003067600D7F87C22C7
:100C700012F80B30334103F00303022B6CD0032B2B
:100C800068D0012B53D1D7F888222B01D258524576
:100C900064D03B4B9A4263D03A4B9A4264D03A4B71
:100CA0009A425FD0394B9A425CD0394B9A425DD020
:100CB000384B9A425AD0384B9A425BD0374B9A42C3
:100CC00056D0374B9A4214BF68224D2230E0A942D9
:100CD00027D9D7F87C0210F80B20920721D12C4697
:100CE00005E010F80CC04CFA02F2930708D1013469
:100CF00004F003028C424FEA940C4FEA4202F0D116
:100D0000621B7F2A0DD9274992094046E2F72AFE45
:100D1000D7F8803224F03F05B5EB830F14D24FEAA9
:100D2000950B2A0149464046E2F71CFE9EE72E221B
:100D30001D494046E2F716FED7F880320135B5EB83
:100D4000830F4FEA830189D340461849BDE8F84F25
:100D5000E2F774BA6D22EBE73D22E9E75422E7E7B8
:100D60004C22E5E75322E3E74422E1E74122DFE7B3
:100D70004222DDE74622DBE730000020CC61050897
:100D8000409D050828950508A0A5050870A505083B
:100D900064920508F0910508D09905086C9A050839
:100DA000AC9E0508E86105080C620508C8610508E5
:100DB00004620508E8A60508064A0346506A1A6850
:100DC0004168C1F31E018A4202D3521A1A60704769
:100DD0000068F5E730000020014441F205538842E5
:100DE00004D398B2012838BF0120704710F8012BB6
:100DF00003EB43135340F2E7034B044A5A620022C9
:100E0000C3F8D421704700BF3000002074D5050816
:100E10002DE9F04781460F46002943D0FFF7DCFF5C
:100E2000214B5C6A82460CB9204637E094F90730C2
:100E3000E668002B06F1FF364FF0000516DB0136A1
:100E400004F11808B54215D32468ECE706EB050851
:100E50004FEA580808F106033A4654F8231048466A
:100E600024F076F80028CCBF45464646731B012B7C
:100E7000ECD8E4E7236933F815309A4510D163695B
:100E80005B5D9F420CD158F825003A46494624F054
:100E900027F828B96068C0F31E002844BDE8F08731
:100EA0000135CFE70120F9E7300000202DE9F843B4
:100EB00080460E46FFF7ACFF0246002840F09280C5
:100EC000FF2E03D949494A480AF0AAFF494CD4F8F1
:100ED000D401751C90B1D4E976132B448B4229D9E7
:100EE0002944FFF7E7F90746D8B90246D4F8DC11E0
:100EF000D4F8D401FFF7DEF9C4F8D471802D2F4661
:100F000038BF80273846FFF7BAF9C4F8D401D0BB00
:100F10002846FFF7B4F9C4F8D40198BB28460BF073
:100F200037FDD4F8D8312B44C4F8D831D4F8D431B3
:100F3000002BE3D0D4F8DC31D4F8D4711F444146FF
:100F40002B44324638464FF00008C4F8DC3123F019
:100F50005BFF07F8068031463846FFF73DFF636ABE
:100F6000D3E90253AB4281462AD36D000A2D38BF24
:100F70000A25C5EBC5001830FFF781F948B9C4F858
:100F8000D401CBE72F460023C4F8D871C4F8DC3174
:100F9000D0E700F1180202EB8502616A026102EB00
:100FA000450242614A680160C968C0F80C80C2F31A
:100FB0001E020A44416862F31E01C0E90115606225
:100FC000626AD2E90331526921F81390D654991D0F
:100FD000626A42F82170D1680131D1605268C2F36F
:100FE0001E021A441046BDE8F88300BF32170508F8
:100FF000C49605083000002010B5044623F082FF97
:1010000001462046BDE81040FFF750BF07B50190EC
:1010100001A8FFF7D1FE019A036933F8120003B06B
:101020005DF804FB07B5019001A8FFF7C5FE019B21
:101030004269D05C03B05DF804FB07B5019001A8DC
:10104000FFF7BAFE019B063350F8230003B05DF8AA
:1010500004FB13B5019001A80C46FFF7ADFE019B00
:101060004269D25C2260063350F8230002B010BD02
:101070002DE9F8431D46002303600B6013602B60CD
:10108000164BDFF85C905C6A07468846164664B9E2
:101090002B68326813442B60BDE8F883336812F87C
:1010A000010B0133034433600DE04C45F0D03B6845
:1010B00001333B60E268D8F800301344C8F80030D0
:1010C0006269E368D1188A42E8D32046FFF778FCCA
:1010D0002B68246803442B60D9E700BF3000002050
:1010E00074D505082DE9F8430D4B0E4F5C6ADFF807
:1010F0003880DFF838900CB1BC4201D1BDE8F883EC
:10110000E36804F1180505EB8306B54201D32468B2
:10111000F1E755F8042B41464846E2F723FCF4E793
:101120003000002074D505083A1705086C850508BD
:1011300030B50023202511F8012F0AB9027030BD07
:10114000120600F1010420D513B1202303702046BC
:101150000B78124A03F07F036BB9013A12F8013F92
:1011600013F0800F044600F101000BD003F07F0361
:1011700023700123DFE712F9014B002CFBDA013B5E
:10118000DBB2E9E700F8013CE8E7012B04BF05709A
:1011900020460B7800F8013B0223CCE741170508F5
:1011A00038B54368194403689942054610D9037B52
:1011B0001BB1084800210AF033FE01F1100424F0AD
:1011C0000704083480682146FFF769F82C60A8609E
:1011D00038BD00BFC496050870B504460E461146DA
:1011E0001546FFF7DDFFD4E901302A4618443146A1
:1011F00023F03AFE63682B44636070BD70B54668A7
:10120000B142044628BF31460D460121FFF7C8FF11
:10121000A368681C5919721B184423F025FE6368E3
:10122000A06801336360284470BD38B501290446C5
:1012300038BF01210025084621606560FFF714F8DA
:101240002573A06038BD38B505460C460131FFF75F
:10125000ECFF6C6038BD0023C0E90132012301605E
:101260000373704738B514460546FFF7DEFF024B9F
:101270002560636038BD00BFD9110208037B10B53B
:10128000044613B98068FFF717F80023A36010BD68
:1012900038B505461020FEF7E7FF29460446FFF75C
:1012A000C4FF204638BD10B5044648B1037B13B9CE
:1012B0008068FFF701F82046BDE81040FEF7FCBF4C
:1012C00010BD000038B5037B04460D461BB107482E
:1012D00000210AF0A5FD016880682944FEF7DFFFC0
:1012E0002368A0601D442560184438BDC4960508D5
:1012F00038B504460D46FFF753FFD4E901301D44CD
:101300006560184438BDD0E900239A4210B5044600
:1013100002D10121FFF7D6FFD4E901320021D154D7
:10132000A06810BD10B50C460121FFF7E1FF047065
:1013300010BD7F29F8B50C46CEB204D80121FFF7C5
:10134000D7FF0670F8BD06F03F06B1F5006FC1F398
:10135000871546F0800607D20221FFF7C9FF65F026
:101360003F0505704670EDE705F03F05B1F5803F9C
:10137000C1F3073745F0800508D20321FFF7B8FF16
:1013800067F01F07077045708670DBE70421FFF7E1
:10139000AFFFA40C07F03F0764F00F0467F07F076E
:1013A000047047708570C670CCE738B505460846AE
:1013B0000C4623F0A7FD214602462846BDE83840EA
:1013C000FFF70ABF10B51446FFF718FF047010BDF1
:1013D00010B51446FFF712FF047010BD43688B422E
:1013E0002CBF591A00214160704738B50446154694
:1013F00062688A42084603D929448A4201D860605B
:1014000038BDA368521A1844194423F02DFD6368AF
:101410005B1B6360F4E70346007893F90020002A21
:101420000ADA00F07F004022104206D113F8012FA3
:1014300002F0C001802904D0704720EA020052085F
:10144000F2E702F03F0242EA8010EFE7431C184641
:101450000133027802F0C002802AF8D070470346B8
:101460000020994200D8704711F8012D02F0C00207
:10147000802A18BF0130F4E7034601440020994256
:101480001A4600D87047127802F0C002802A03F191
:10149000010318BF0130F2E77F289DBF024B185CA3
:1014A000C0F3400000207047968505087F289DBF47
:1014B000024B185CC0F3C0000020704796850508F9
:1014C0007F289DBF024B185CC0F38000002070474E
:1014D000968505087F289DBF024B185CC0F38010DD
:1014E00000207047968505087F2809D8064B1B5CAD
:1014F00013F00C0F06D1A0F15F035842584170471A
:101500000020704701207047968505087F289DBF01
:10151000024B185CC0F30010002070479685050848
:101520007F289DBF024B185CC0F34010002070471D
:101530009685050808B50246FFF7E8FF00B120329E
:10154000104608BD08B50246FFF7EAFF00B1203A91
:10155000104608BD3038092884BF20F02000073825
:10156000704710B502460144E5240020914203D89B
:10157000B0FA80F0400917E012F8013B30B103F0F7
:10158000C003802B11D10138C0B2EFE7BF2B09D9BE
:10159000F72B09D8DB0803F0060344FA03F303F042
:1015A0000300E3E71B06E1D510BD0020FCE702398C
:1015B00081420B4603D31A880239002AF8D002333D
:1015C000181A40107047B2EB131FF0B504464FEAEB
:1015D000131519D9501B01EB450103F00F03054604
:1015E00026460F4635B904EB400434F8023C03B9F3
:1015F0000138F0BD012D31F8022B18BF3A68DA40EE
:1016000026F8022B013DECE70020F2E7F0B5059F3C
:101610000024D21B2546A7420FD100EB470601EB61
:10162000470100239A4213D106EB420315B126F875
:1016300012500233181A4010F0BD31F8146033F81C
:1016400014C06644354420F814502D0C0134E2E7F0
:1016500031F813402C4426F81340250C0133E1E700
:10166000F0B40E4604990025521A2C46A9420BD11B
:1016700000EB410506EB410600239A420FD105EB32
:101680004201F0BCFFF793BF36F815703C4433F8C5
:101690001570E41B20F8154024140135E6E736F8F0
:1016A00013100C4425F8134024140133E5E72DE909
:1016B000F043079CDDF828E0DDE90876023915469D
:1016C00084464FF6FF78A4EB020955B900EB4201BE
:1016D0001FB1012320F812300231BDE8F043FFF7BB
:1016E00066BF31F8024F013D4444264405EB09042E
:1016F000A5422ABF33F8024B4FF6FF7444447444AA
:1017000086EA040E17FA8EF72CF8027B4FEA144E85
:10171000360C3F0CD9E738B502290446806838BF3B
:1017200002210D4618B12368B1EB930F07D9690068
:10173000FEF7B5FD2368A06065F39F03236038BD05
:1017400038B504460C20FEF78FFD23682278054645
:1017500002F00102C3F39D0023F0030313432B6047
:1017600063686B604000FEF77FFDA8602268A16897
:10177000C2F39D02520023F047FB284638BD994230
:1017800010B511D313D800EB410002EB410209B9A7
:10179000084610BD30F8023D32F8024D1B1B002BED
:1017A00002DB04D10139F2E74FF0FF30F1E701200D
:1017B000EFE710B5044638B18068FEF77DFD20469E
:1017C000BDE81040FEF778BD10BD70B505460C466B
:1017D0000221FFF7A0FF002C2B78B4BF01220022CA
:1017E00062F30003AA682B70B4BF61422146012353
:1017F00088B2090C14461E4622F8020B03F10103BD
:10180000F6D16E60208070BD0023C0E90033836094
:10181000704728B103789B0702D48068FEF74CBD5F
:10182000704738B504460D464968FFF774FF2A78BB
:101830002378A06862F3000323706A686260A96875
:101840005200BDE8384023F0DFBA0A4629B90178D2
:10185000426062F3000101707047FFF7B6BF08B540
:10186000FFF7D2FFBDE80840FFF7EFBF920042F05C
:10187000020210B402600022C0E901215DF8044BAD
:101880001946FFF7E2BFF8B59DF8187014461D46DB
:1018900004210646FFF73FFF22462B4627B1002DC5
:1018A0000CDA624265EB4503317867F30001317071
:1018B0000021716052EA030102D1F8BD0027F3E76D
:1018C000D6E901104C1C746020F81120120C42EA79
:1018D00003421B0CEEE72DE9F3418DED010A019D5A
:1018E0000378EA0F62F300030370C5F30F4313F4A8
:1018F000FF4380460BD198F8003023F0010388F8AD
:1019000000300023C8F8043002B0BDE8F081B3F520
:10191000FF4FF0D0C5F3C754A4F17F06002EEADBD9
:1019200005D1012102B0BDE8F041FFF74EBF162EF0
:10193000C5F31605A4F16F07D8BFC6F1170645F425
:1019400000054FEA2717D5BFF540963C002609361B
:10195000D4BF344624113946C8BF06F00F06FFF73E
:10196000DAFEC8F804702CB1D8F808006200002133
:1019700023F08EFA4EB1D8F8083005FA06F223F8B3
:101980001420C6F11006F5400134A742BCD0D8F8A7
:10199000083023F814502D0CF6E72DE9F8430446DF
:1019A0008F18C2F35B020D46511C9846089EFFF744
:1019B000B2FE237868F300032370AC4600221FFABE
:1019C00086FEBC456046626002D3401BBDE8F883DA
:1019D0000178A1F13003092B0CF1010C05D9A1F11B
:1019E0004103192B12D8A1F13703B342EDD2A068FD
:1019F00090468146B8F1000F0FD100EB420113B1C0
:101A000020F812300231091A4A10DAE7A1F1610315
:101A1000192BDAD8A1F15703E7E7B9F800100EFB4C
:101A2000013329F8023B08F1FF381B0CE2E7F8B557
:101A3000044615461E4641B3531E1E444FF0FF3761
:101A4000E9000F3109092046FFF765FE23780021E0
:101A500023F0010323706160CDB10F294FF0000323
:101A60000BDC32788A401343013D9BB201F108013F
:101A70003E4402D00F29F4DD10216268501C6060E2
:101A8000A068103920F81230E6E70127D8E7D4E93A
:101A9000011000EB4101FFF78AFD6060F8BD38B529
:101AA00005780B7805F0010203F001030446981A4B
:101AB00008D1D1E90132D4E90110FFF760FEEB074C
:101AC00048BF404238BD884210B5044601D0FFF7F8
:101AD000A8FE237823F00103237010BD884210B5BF
:101AE000044601D0FFF79DFE63683BB12378C3F342
:101AF000000282F0010262F30003237010BD8842ED
:101B00001FB5044601D0FFF78CFE626862B901215F
:101B10002046FFF700FEA26801231380636023784C
:101B200043F00103237010E02378D9070FD523F089
:101B30000103237001230093A168ADF80E3008461D
:101B40000DF10E03FFF78CFD606004B010BD511C59
:101B50002046FFF7E0FD01230093D4E90121ADF811
:101B60000E3008460DF10E03FFF750FD6060D6E71A
:101B70004B682DE9F04705460E46144603B12AB9D5
:101B800031462846BDE8F047FFF74BBE02F10F0192
:101B90004FEA111803EB1111FFF7BDFDD6E9012340
:101BA00008EB0207A96807F1004014F00F0400F1E8
:101BB000FF3008BF10244FEA400901EB400003EB5F
:101BC0004203114686464FF0000CC4F1100409BBD5
:101BD0006FF001035A4383182CFA04FCC8F1010882
:101BE00020F802C003EB48034FEA4802184652426D
:101BF00023F04EF909F1020903464B4417B133F8BB
:101C0000022D9AB16F6032782B7862F300032B704B
:101C1000BDE8F08733F802AD4AEA0C0C2CFA04FA5E
:101C20002EF802A94FEA0C4C0139D0E7013FE5E755
:101C30002DE9FF410D4649680646144601B132B907
:101C40002946304604B0BDE8F041FFF7EABDFFF792
:101C500062FDB768D5F808806A6823464146384671
:101C6000FFF7B1FC70602978337861F300033370BB
:101C7000DB0702460AD500236968ADF80E3020095B
:101C8000994201D0834204D181420AD804B0BDE810
:101C9000F08138F813509DB101238142ADF80E3028
:101CA00012D904F00F04012338F8101003FA04F4D9
:101CB000013C214206D1BDF80E30002BE6D003E0F6
:101CC0000133DDE7ADF80E30012312B93B807360BC
:101CD000DCE7009339460DF10E033846FFF796FC1A
:101CE0007060D3E773B514460D46D2E9013206465B
:101CF000D1E90110FFF743FD0028A2BF23462C467F
:101D00001D4623782A7861685340DB071AD40131D5
:101D10003046FFF700FD6B680093D4E90121AB6802
:101D2000B068FFF773FC706023783278C3F3000368
:101D300000280CBF002303F0010363F3000232709C
:101D400002B070BD3046FFF7E6FC6B680093D4E943
:101D50000121AB68B068FFF783FCE4E7F7B51446F0
:101D60000F46D2E901320546D1E90110FFF707FD20
:101D70000028A2BF23463C461F4623783A78616874
:101D800083EA0203ACBF00260126DB0719D5013127
:101D90002846FFF7C0FC7B680093D4E90121BB68AB
:101DA000A868FFF733FC686028B1237803F00100CE
:101DB0000EB180F001002B7860F300032B7003B0AC
:101DC000F0BD2846FFF7A7FC7B680093D4E901210A
:101DD000BB68A868FFF744FCE5E72DE9F04F15461E
:101DE0004A686B689A4224BF2B460D460C4628BFB2
:101DF0001C462B786968DB0785B0064622D4237819
:101E000013F001071ED1FFF786FCD4E9011CB0686E
:101E1000AD683B4699420CD100EB4101FFF7C7FB8F
:101E200000237060327863F30002327005B0BDE8C1
:101E3000F08F35F813203CF81340224020F813208F
:101E40000133E7E701313046FFF765FC2F7823784F
:101E5000D5F804C0B068A26887EA0301C94301F05D
:101E6000010E41F3000189B207F0010847F30007B2
:101E70000191B9B20291A968A1F1020B616803F066
:101E8000010943F300039BB2A1EB0C0100936746E9
:101E9000824603918FB900EB4C01BEF1000F03D0D5
:101EA000012320F81C300231FFF781FB706022789B
:101EB0002B78C2F300021340B4E73BF8021F029BE9
:101EC0005940039B013F8844D919B9429BBF32F85E
:101ED000021B009B009959408944019B08EA0901B3
:101EE00059401EFA81F12AF8021B4FEA19494FEABC
:101EF00018484FEA114ECDE72DE9F84F14464A68CD
:101F000063689A4224BF23460C460D4628BF1D46EF
:101F100023786168DB07064632D42A7812F001077D
:101F20002ED1FFF7F8FBD5E9013EA1686468D6F829
:101F300008C0E41A3A46934213D101EB4301002250
:101F40000CEB4303944215D103EB4403A3EB0C03C6
:101F5000581000223378706062F300033370BDE8DC
:101F6000F88F31F812003EF8125028432CF8120076
:101F70000132E0E731F8120023F812000132E1E704
:101F800001313046FFF7C7FB22782B786168B068D3
:101F9000A468D5E901E702F0010803F0010942F362
:101FA000000243F3000392B29BB2A4F1020C0D466F
:101FB00083464FF0010AAEEB010E2DB900EB410153
:101FC000FFF7F5FA0122C5E73CF8024F013D544006
:101FD000A0440EEB0504A5422ABF37F8024B1C466D
:101FE0005C40A14448EA0904E4431AFA84F42BF85B
:101FF000024B4FEA19494FEA18484FEA144ADCE706
:10200000F0B514464A6863689A4228BF23460D46D5
:1020100024BF0C461D4627782B7861685F4017F077
:10202000010785B006463BD1FFF775FB237813F017
:10203000010329D1D5E9015C6268B068A768521B29
:102040009D4212D100EB450107EB450700239A4260
:1020500014D101EB4201FFF7AAFA00273378706030
:1020600067F30003337005B0F0BD37F813103CF888
:102070001340614020F813100133E1E737F81340B3
:1020800021F813400133E2E7CDE9027701976B684D
:102090000093D4E90121AB68B068FFF708FBDCE7E7
:1020A0000131FFF738FB2B78DB4303F00103039387
:1020B0002378DB4303F001030127029301976B6848
:1020C0000093D4E90121AB68B068FFF7F0FAC5E7E7
:1020D0002DE9F04F4B6885B004460E4615460BB10E
:1020E000536843B9237823F001032370002363600E
:1020F00005B0BDE8F08F81422DD1FFF721FBA5424D
:10210000064607462ED06B68716820461944FFF7D3
:1021100002FB2268A068C2F39D025200002122F057
:10212000B7FEB368D4F808E0D6F804900193AB6822
:10213000029300226B6803930EEB4908F4461146A4
:10214000039B934233D0DDF804B0CDF80090ACF19E
